{
  "contractName": "Immunization",
  "abi": [
    {
      "anonymous": false,
      "inputs": [],
      "name": "CreatedPatientEvent",
      "type": "event"
    },
    {
      "constant": true,
      "inputs": [
        {
          "internalType": "uint256",
          "name": "",
          "type": "uint256"
        }
      ],
      "name": "Records",
      "outputs": [
        {
          "internalType": "string",
          "name": "patientHash",
          "type": "string"
        },
        {
          "internalType": "uint256",
          "name": "recordNumber",
          "type": "uint256"
        }
      ],
      "payable": false,
      "stateMutability": "view",
      "type": "function"
    },
    {
      "constant": false,
      "inputs": [
        {
          "internalType": "uint256",
          "name": "_recordNumber",
          "type": "uint256"
        },
        {
          "internalType": "string",
          "name": "_patientHash",
          "type": "string"
        }
      ],
      "name": "set",
      "outputs": [
        {
          "internalType": "bool",
          "name": "",
          "type": "bool"
        }
      ],
      "payable": false,
      "stateMutability": "nonpayable",
      "type": "function"
    },
    {
      "constant": true,
      "inputs": [
        {
          "internalType": "uint256",
          "name": "_recordNumber",
          "type": "uint256"
        }
      ],
      "name": "get",
      "outputs": [
        {
          "internalType": "string",
          "name": "",
          "type": "string"
        }
      ],
      "payable": false,
      "stateMutability": "view",
      "type": "function"
    }
  ],
  "bytecode": "0x608060405234801561001057600080fd5b506105d3806100206000396000f3fe608060405234801561001057600080fd5b50600436106100415760003560e01c8063643719771461004657806366da29a2146101235780639507d39a146101d1575b600080fd5b6101096004803603604081101561005c57600080fd5b81019080803590602001909291908035906020019064010000000081111561008357600080fd5b82018360208201111561009557600080fd5b803590602001918460018302840111640100000000831117156100b757600080fd5b91908080601f016020809104026020016040519081016040528093929190818152602001838380828437600081840152601f19601f820116905080830192505050505050509192919290505050610278565b604051808215151515815260200191505060405180910390f35b61014f6004803603602081101561013957600080fd5b810190808035906020019092919050505061037d565b6040518080602001838152602001828103825284818151815260200191508051906020019080838360005b8381101561019557808201518184015260208101905061017a565b50505050905090810190601f1680156101c25780820380516001836020036101000a031916815260200191505b50935050505060405180910390f35b6101fd600480360360208110156101e757600080fd5b8101908080359060200190929190505050610439565b6040518080602001828103825283818151815260200191508051906020019080838360005b8381101561023d578082015181840152602081019050610222565b50505050905090810190601f16801561026a5780820380516001836020036101000a031916815260200191505b509250505060405180910390f35b600080831161028657600080fd5b60008251116102fd576040517f08c379a00000000000000000000000000000000000000000000000000000000081526004018080602001828103825260188152602001807f50617469656e74204e616d65206973207265717569726564000000000000000081525060200191505060405180910390fd5b8160008060018603815260200190815260200160002060000190805190602001906103299291906104f9565b5082600080600186038152602001908152602001600020600101819055507f6f32500025918c94a04c1946df9cddf4638e096a856c3d8f0d23f1dd15d7680b60405160405180910390a16001905092915050565b6000602052806000526040600020600091509050806000018054600181600116156101000203166002900480601f0160208091040260200160405190810160405280929190818152602001828054600181600116156101000203166002900480156104295780601f106103fe57610100808354040283529160200191610429565b820191906000526020600020905b81548152906001019060200180831161040c57829003601f168201915b5050505050908060010154905082565b606060008060006001850381526020019081526020016000209050806000018054600181600116156101000203166002900480601f0160208091040260200160405190810160405280929190818152602001828054600181600116156101000203166002900480156104ec5780601f106104c1576101008083540402835291602001916104ec565b820191906000526020600020905b8154815290600101906020018083116104cf57829003601f168201915b5050505050915050919050565b828054600181600116156101000203166002900490600052602060002090601f016020900481019282601f1061053a57805160ff1916838001178555610568565b82800160010185558215610568579182015b8281111561056757825182559160200191906001019061054c565b5b5090506105759190610579565b5090565b61059b91905b8082111561059757600081600090555060010161057f565b5090565b9056fea265627a7a723158204e6933d71fb17262610fb3c86fb12a4931554ce2ac2cde9c3dc5e51755b9e8c564736f6c63430005100032",
  "source": "pragma solidity ^0.5.0;\n\ncontract Immunization {\n\n\tstruct patientRecord {\n\t\tstring patientHash;\n\t\tuint recordNumber;\n\t}\n\n\t\n\t mapping(uint => patientRecord) public Records;\n\t event CreatedPatientEvent();\n\t \n\t \n\n\tfunction set(uint _recordNumber,string memory _patientHash) public returns (bool){\n\t    \n\t   require(_recordNumber > 0); //check the record number is entered\n       require(bytes(_patientHash).length > 0, \"Patient Name is required\"); //check the patient name is entered\n       \n\t   \n\t   Records[_recordNumber-1].patientHash = _patientHash;\n\t   Records[_recordNumber-1].recordNumber = _recordNumber;\n\t   emit CreatedPatientEvent();\n\t   return true;\n\t}\n\n\n\tfunction get(uint _recordNumber) public view returns(string memory){\n\t\t\n\t    \n\t\t patientRecord storage r = Records[_recordNumber-1];\n\t\t return(r.patientHash);\n\t    \n\t}\n}",
  "sourcePath": "/Users/polinab/gitworkspace/blockchain/Immunization_blockchain/src/contracts/Immunization.sol",
  "compiler": {
    "name": "solc",
    "version": "0.5.16+commit.9c3226ce.Emscripten.clang"
  },
  "schemaVersion": "3.4.1",
  "updatedAt": "2021-05-28T12:14:06.779Z",
  "networkType": "ethereum",
  "devdoc": {
    "methods": {}
  },
  "userdoc": {
    "methods": {}
  }
}